:060000000A128A110C280F
:10000800FE00030EF1000A08F2000A128A114928BC
:100018000A128A110F2883010A128A1162280130F4
:100028008316031788008901831603130F088F3975
:1000380060388F000F140130850083120313850187
:100048008316031387018312031387011F083F399F
:1000580040389F00831603131F129F12C330831268
:1000680003139F05831603139F13831203131F148F
:100078000D30F300F30B3E288B17831603130C1770
:10008800831203130C130B170800831203130C1F9E
:100098004E284F285B281F0CF000700C0F39003ACF
:1000A800031D572858285A281E0887000C13720861
:1000B8008A00710E8300FE0E7E0E09000A128A1154
:1000C80013200A128A11831203139F186C286D28B3
:0C00D80067289F1467280A128A110C2860
:08400000FF3FFF3FFF3FFF3FC0
:04400E00D420FF3F7C
:00000001FF
