:060000000A128A1110280B
:10000800FE00030E83120313AC000408AD000A08B7
:10001800AE000A128A1131280A128A111328831392
:100028003B30FD000230FE006E30FF0031308400AE
:100038000A128A115F220A128A11BB01BC01BD0192
:10004800BE01BF01C001C101C201C301FB01FC0126
:10005800FD0183010A128A11EB290C1F3428352867
:100068008C281F0CAA002A0C0F39003A031D3D28C2
:100078003E2841281E08870089281F0CAA002A0C40
:100088000F39013A031D49284A2889283330F600D8
:100098000030F7001E08AA00AB012A08F0002B0860
:1000A800F1006430F2000030F3000A128A111D22B8
:1000B8000A128A117108F9007008F8000A128A11E8
:1000C80030210A128A117708FC007608FB007C08A8
:1000D80083120313A5007B08A4000A128A11C22008
:1000E8000A128A11831203133C08F1003B08F0003E
:1000F8003E08F3003D08F2004008F5003F08F40010
:100108000A128A1142220A128A11831203130C134B
:100118000B1D8F289028B92889017D08031D952873
:1001280096289D284108880001308900FD01FD0AB4
:10013800B6287D03031DA128A228AB284208880001
:10014800023089000230AA002A08FD00B6280230D1
:100158007D06031DB028B128B6284308880004305E
:100168008900FD010B11D93081002E088A002D0865
:1001780084002C0E8300FE0E7E0E09006430F6000B
:100188000030F700831203132508F9002408F8004B
:100198000A128A1130210A128A117708831203136E
:1001A800C0007608BF000A30F6000030F7004008AB
:1001B800F1003F08F0009C30F200FF30F3000A1213
:1001C8008A111D220A128A11831203132408700748
:1001D800F80025080318250A7107F9000A128A1180
:1001E80030210A128A11770883120313BE00760899
:1001F800BD004008F1003F08F0009C30F200FF30DD
:10020800F3000A128A111D220A128A117008831239
:100218000313A6007108A7003E08F1003D08F0008E
:10022800F630F200FF30F3000A128A111D220A127A
:100238008A117008831203132607A800710803188F
:10024800710A2707A90024082807BB0025080318F6
:10025800250A2907BC00080083120313A101F71F10
:10026800362937293E29F609F709F60A0319F70A44
:10027800A101A10AF91F412942294B29F809F909C5
:10028800F80A0319F90A0130FA007A08A106A2014E
:10029800A301760877040319522953298A29A00152
:1002A800A00A612901300310F60DF70DFF3E031D6A
:1002B80057290130FA007A08A007F71F6429652931
:1002C800562901300310A20DA30DFF3E031D662918
:1002D80077087902031D722976087802031C7529AC
:1002E80076297D297608F8027708031CF903F902B4
:1002F800221401300310F70CF60CFF3E031D7E2973
:100308000130A002031D89298A29652921080319BA
:100318008E298F299429A209A309A20A0319A30ADD
:100328002308F7002208F600080003308316031795
:1003380088008901831603130F088F3960388F00EE
:100348000F140330850083120313850183160313EA
:10035800870183120313870183160313880183120D
:100368000313880183160313890183120313890178
:100378001F083F3940389F00831603131F129F122E
:10038800C330831203139F05831603139F1383122D
:1003980003131F140C3083120313AF00AF0BD229C1
:1003A80000008316031381128111011581140114B1
:1003B800D9308312031381008B17831603130C178C
:1003C8008B16831203130C130B110B1708000A1258
:1003D8008A1199210A128A11831203139F18F52989
:1003E800F629F0291F0CB000300C0F39003A031D14
:1003F800FE29FF29042A1F08C33904389F000F2A41
:100408001F0CB000300C0F39013A031D0C2A0D2ABD
:100418000F2AC3309F050C3083120313B000B00BB2
:10042800132A0000831203139F14F0290A128A1159
:100438001028F401F501701C222A232A292A72089F
:10044800F4070318F50A7308F50701300310F20DD5
:10045800F30DFF3E031D2A2A01300310F10CF00CA6
:10046800FF3E031D312A70087104031D3C2A3D2AF2
:100478001F2A7508F1007408F00008007008313E62
:10048800840083130008F600760883120313C10062
:100498007208313E84000008F6007608C20074082D
:1004A800313E84000008F6007608C30008007E0884
:1004B8008A007F0882000A128A115B220A128A11B6
:1004C8008000840A04087D0603190034FF0A031912
:1004D800FE0A5F2ABF348634DB34CF34E634ED3489
:0804E800FD348734FF34EF34CA
:08400000FF3FFF3FFF3FFF3FC0
:04400E00D420FF3F7C
:00000001FF
